{
  "contractName": "StudentRecords",
  "abi": [
    {
      "anonymous": false,
      "inputs": [
        {
          "indexed": false,
          "internalType": "string",
          "name": "rollNumber",
          "type": "string"
        },
        {
          "indexed": false,
          "internalType": "uint8",
          "name": "subject1",
          "type": "uint8"
        },
        {
          "indexed": false,
          "internalType": "uint8",
          "name": "subject2",
          "type": "uint8"
        },
        {
          "indexed": false,
          "internalType": "uint8",
          "name": "subject3",
          "type": "uint8"
        },
        {
          "indexed": false,
          "internalType": "uint8",
          "name": "subject4",
          "type": "uint8"
        },
        {
          "indexed": false,
          "internalType": "uint8",
          "name": "subject5",
          "type": "uint8"
        }
      ],
      "name": "MarksAdded",
      "type": "event"
    },
    {
      "anonymous": false,
      "inputs": [
        {
          "indexed": false,
          "internalType": "string",
          "name": "rollNumber",
          "type": "string"
        },
        {
          "indexed": false,
          "internalType": "string",
          "name": "name",
          "type": "string"
        },
        {
          "indexed": false,
          "internalType": "string",
          "name": "admissionCode",
          "type": "string"
        },
        {
          "indexed": false,
          "internalType": "string",
          "name": "fatherName",
          "type": "string"
        }
      ],
      "name": "StudentAdded",
      "type": "event"
    },
    {
      "inputs": [
        {
          "internalType": "string",
          "name": "_name",
          "type": "string"
        },
        {
          "internalType": "string",
          "name": "_rollNumber",
          "type": "string"
        },
        {
          "internalType": "string",
          "name": "_admissionCode",
          "type": "string"
        },
        {
          "internalType": "string",
          "name": "_fatherName",
          "type": "string"
        }
      ],
      "name": "addStudentDetails",
      "outputs": [],
      "stateMutability": "nonpayable",
      "type": "function"
    },
    {
      "inputs": [
        {
          "internalType": "string",
          "name": "_rollNumber",
          "type": "string"
        },
        {
          "internalType": "uint8",
          "name": "_subject1",
          "type": "uint8"
        },
        {
          "internalType": "uint8",
          "name": "_subject2",
          "type": "uint8"
        },
        {
          "internalType": "uint8",
          "name": "_subject3",
          "type": "uint8"
        },
        {
          "internalType": "uint8",
          "name": "_subject4",
          "type": "uint8"
        },
        {
          "internalType": "uint8",
          "name": "_subject5",
          "type": "uint8"
        }
      ],
      "name": "addStudentMarks",
      "outputs": [],
      "stateMutability": "nonpayable",
      "type": "function"
    },
    {
      "inputs": [
        {
          "internalType": "string",
          "name": "_rollNumber",
          "type": "string"
        }
      ],
      "name": "getStudentDetails",
      "outputs": [
        {
          "components": [
            {
              "internalType": "string",
              "name": "name",
              "type": "string"
            },
            {
              "internalType": "string",
              "name": "rollNumber",
              "type": "string"
            },
            {
              "internalType": "string",
              "name": "admissionCode",
              "type": "string"
            },
            {
              "internalType": "string",
              "name": "fatherName",
              "type": "string"
            },
            {
              "internalType": "bool",
              "name": "exists",
              "type": "bool"
            }
          ],
          "internalType": "struct StudentRecords.StudentDetails",
          "name": "",
          "type": "tuple"
        }
      ],
      "stateMutability": "view",
      "type": "function",
      "constant": true
    },
    {
      "inputs": [
        {
          "internalType": "string",
          "name": "_rollNumber",
          "type": "string"
        }
      ],
      "name": "getStudentMarks",
      "outputs": [
        {
          "components": [
            {
              "internalType": "uint256",
              "name": "timestamp",
              "type": "uint256"
            },
            {
              "internalType": "uint8",
              "name": "subject1",
              "type": "uint8"
            },
            {
              "internalType": "uint8",
              "name": "subject2",
              "type": "uint8"
            },
            {
              "internalType": "uint8",
              "name": "subject3",
              "type": "uint8"
            },
            {
              "internalType": "uint8",
              "name": "subject4",
              "type": "uint8"
            },
            {
              "internalType": "uint8",
              "name": "subject5",
              "type": "uint8"
            }
          ],
          "internalType": "struct StudentRecords.Marks[]",
          "name": "",
          "type": "tuple[]"
        }
      ],
      "stateMutability": "view",
      "type": "function",
      "constant": true
    },
    {
      "inputs": [
        {
          "internalType": "string",
          "name": "_rollNumber",
          "type": "string"
        }
      ],
      "name": "getStudentLogs",
      "outputs": [
        {
          "components": [
            {
              "internalType": "uint256",
              "name": "timestamp",
              "type": "uint256"
            },
            {
              "internalType": "string",
              "name": "activityType",
              "type": "string"
            },
            {
              "internalType": "string",
              "name": "description",
              "type": "string"
            }
          ],
          "internalType": "struct StudentRecords.ActivityLog[]",
          "name": "",
          "type": "tuple[]"
        }
      ],
      "stateMutability": "view",
      "type": "function",
      "constant": true
    }
  ],
  "bytecode": "0x608060405234801561000f575f80fd5b506119d18061001d5f395ff3fe608060405234801561000f575f80fd5b5060043610610055575f3560e01c80631eee3d59146100595780638592ec7b146100895780638805f0f4146100a5578063ab659185146100d5578063c830458714610105575b5f80fd5b610073600480360381019061006e9190610e62565b610121565b604051610080919061104a565b60405180910390f35b6100a3600480360381019061009e919061106a565b610330565b005b6100bf60048036038101906100ba9190610e62565b610588565b6040516100cc91906111e0565b60405180910390f35b6100ef60048036038101906100ea9190610e62565b610884565b6040516100fc919061133c565b60405180910390f35b61011f600480360381019061011a9190611386565b610a03565b005b60605f826040516101329190611465565b90815260200160405180910390206004015f9054906101000a900460ff1661018f576040517f08c379a0000000000000000000000000000000000000000000000000000000008152600401610186906114d5565b60405180910390fd5b60028260405161019f9190611465565b9081526020016040518091039020805480602002602001604051908101604052809291908181526020015f905b82821015610325578382905f5260205f2090600302016040518060600160405290815f820154815260200160018201805461020690611520565b80601f016020809104026020016040519081016040528092919081815260200182805461023290611520565b801561027d5780601f106102545761010080835404028352916020019161027d565b820191905f5260205f20905b81548152906001019060200180831161026057829003601f168201915b5050505050815260200160028201805461029690611520565b80601f01602080910402602001604051908101604052809291908181526020018280546102c290611520565b801561030d5780601f106102e45761010080835404028352916020019161030d565b820191905f5260205f20905b8154815290600101906020018083116102f057829003601f168201915b505050505081525050815260200190600101906101cc565b505050509050919050565b5f8360405161033f9190611465565b90815260200160405180910390206004015f9054906101000a900460ff161561039d576040517f08c379a00000000000000000000000000000000000000000000000000000000081526004016103949061159a565b60405180910390fd5b6040518060a00160405280858152602001848152602001838152602001828152602001600115158152505f846040516103d69190611465565b90815260200160405180910390205f820151815f0190816103f79190611755565b50602082015181600101908161040d9190611755565b5060408201518160020190816104239190611755565b5060608201518160030190816104399190611755565b506080820151816004015f6101000a81548160ff02191690831515021790555090505060028360405161046c9190611465565b908152602001604051809103902060405180606001604052804281526020016040518060400160405280600d81526020017f44657461696c73204164646564000000000000000000000000000000000000008152508152602001866040516020016104d7919061186e565b604051602081830303815290604052815250908060018154018082558091505060019003905f5260205f2090600302015f909190919091505f820151815f0155602082015181600101908161052c9190611755565b5060408201518160020190816105429190611755565b5050507f6ef3757a54ee8d141bfd890e5105974cc7c293d6f695bdeb94699ed2d09f07018385848460405161057a94939291906118c7565b60405180910390a150505050565b610590610ce5565b5f8260405161059f9190611465565b90815260200160405180910390206004015f9054906101000a900460ff166105fc576040517f08c379a00000000000000000000000000000000000000000000000000000000081526004016105f3906114d5565b60405180910390fd5b5f8260405161060b9190611465565b90815260200160405180910390206040518060a00160405290815f8201805461063390611520565b80601f016020809104026020016040519081016040528092919081815260200182805461065f90611520565b80156106aa5780601f10610681576101008083540402835291602001916106aa565b820191905f5260205f20905b81548152906001019060200180831161068d57829003601f168201915b505050505081526020016001820180546106c390611520565b80601f01602080910402602001604051908101604052809291908181526020018280546106ef90611520565b801561073a5780601f106107115761010080835404028352916020019161073a565b820191905f5260205f20905b81548152906001019060200180831161071d57829003601f168201915b5050505050815260200160028201805461075390611520565b80601f016020809104026020016040519081016040528092919081815260200182805461077f90611520565b80156107ca5780601f106107a1576101008083540402835291602001916107ca565b820191905f5260205f20905b8154815290600101906020018083116107ad57829003601f168201915b505050505081526020016003820180546107e390611520565b80601f016020809104026020016040519081016040528092919081815260200182805461080f90611520565b801561085a5780601f106108315761010080835404028352916020019161085a565b820191905f5260205f20905b81548152906001019060200180831161083d57829003601f168201915b50505050508152602001600482015f9054906101000a900460ff1615151515815250509050919050565b60605f826040516108959190611465565b90815260200160405180910390206004015f9054906101000a900460ff166108f2576040517f08c379a00000000000000000000000000000000000000000000000000000000081526004016108e9906114d5565b60405180910390fd5b6001826040516109029190611465565b9081526020016040518091039020805480602002602001604051908101604052809291908181526020015f905b828210156109f8578382905f5260205f2090600202016040518060c00160405290815f8201548152602001600182015f9054906101000a900460ff1660ff1660ff1681526020016001820160019054906101000a900460ff1660ff1660ff1681526020016001820160029054906101000a900460ff1660ff1660ff1681526020016001820160039054906101000a900460ff1660ff1660ff1681526020016001820160049054906101000a900460ff1660ff1660ff16815250508152602001906001019061092f565b505050509050919050565b5f86604051610a129190611465565b90815260200160405180910390206004015f9054906101000a900460ff16610a6f576040517f08c379a0000000000000000000000000000000000000000000000000000000008152600401610a66906114d5565b60405180910390fd5b600186604051610a7f9190611465565b90815260200160405180910390206040518060c001604052804281526020018760ff1681526020018660ff1681526020018560ff1681526020018460ff1681526020018360ff16815250908060018154018082558091505060019003905f5260205f2090600202015f909190919091505f820151815f01556020820151816001015f6101000a81548160ff021916908360ff16021790555060408201518160010160016101000a81548160ff021916908360ff16021790555060608201518160010160026101000a81548160ff021916908360ff16021790555060808201518160010160036101000a81548160ff021916908360ff16021790555060a08201518160010160046101000a81548160ff021916908360ff1602179055505050600286604051610bad9190611465565b908152602001604051809103902060405180606001604052804281526020016040518060400160405280600b81526020017f4d61726b7320416464656400000000000000000000000000000000000000000081525081526020016040518060400160405280601381526020017f4d61726b73207265636f72642061646465642e00000000000000000000000000815250815250908060018154018082558091505060019003905f5260205f2090600302015f909190919091505f820151815f01556020820151816001019081610c839190611755565b506040820151816002019081610c999190611755565b5050507fc98d7659834431a44cb603f130dee6771793648f56c1d6e3b730c591eccb39c2868686868686604051610cd596959493929190611935565b60405180910390a1505050505050565b6040518060a00160405280606081526020016060815260200160608152602001606081526020015f151581525090565b5f604051905090565b5f80fd5b5f80fd5b5f80fd5b5f80fd5b5f601f19601f8301169050919050565b7f4e487b71000000000000000000000000000000000000000000000000000000005f52604160045260245ffd5b610d7482610d2e565b810181811067ffffffffffffffff82111715610d9357610d92610d3e565b5b80604052505050565b5f610da5610d15565b9050610db18282610d6b565b919050565b5f67ffffffffffffffff821115610dd057610dcf610d3e565b5b610dd982610d2e565b9050602081019050919050565b828183375f83830152505050565b5f610e06610e0184610db6565b610d9c565b905082815260208101848484011115610e2257610e21610d2a565b5b610e2d848285610de6565b509392505050565b5f82601f830112610e4957610e48610d26565b5b8135610e59848260208601610df4565b91505092915050565b5f60208284031215610e7757610e76610d1e565b5b5f82013567ffffffffffffffff811115610e9457610e93610d22565b5b610ea084828501610e35565b91505092915050565b5f81519050919050565b5f82825260208201905092915050565b5f819050602082019050919050565b5f819050919050565b610ee481610ed2565b82525050565b5f81519050919050565b5f82825260208201905092915050565b5f5b83811015610f21578082015181840152602081019050610f06565b5f8484015250505050565b5f610f3682610eea565b610f408185610ef4565b9350610f50818560208601610f04565b610f5981610d2e565b840191505092915050565b5f606083015f830151610f795f860182610edb565b5060208301518482036020860152610f918282610f2c565b91505060408301518482036040860152610fab8282610f2c565b9150508091505092915050565b5f610fc38383610f64565b905092915050565b5f602082019050919050565b5f610fe182610ea9565b610feb8185610eb3565b935083602082028501610ffd85610ec3565b805f5b8581101561103857848403895281516110198582610fb8565b945061102483610fcb565b925060208a01995050600181019050611000565b50829750879550505050505092915050565b5f6020820190508181035f8301526110628184610fd7565b905092915050565b5f805f806080858703121561108257611081610d1e565b5b5f85013567ffffffffffffffff81111561109f5761109e610d22565b5b6110ab87828801610e35565b945050602085013567ffffffffffffffff8111156110cc576110cb610d22565b5b6110d887828801610e35565b935050604085013567ffffffffffffffff8111156110f9576110f8610d22565b5b61110587828801610e35565b925050606085013567ffffffffffffffff81111561112657611125610d22565b5b61113287828801610e35565b91505092959194509250565b5f8115159050919050565b6111528161113e565b82525050565b5f60a083015f8301518482035f8601526111728282610f2c565b9150506020830151848203602086015261118c8282610f2c565b915050604083015184820360408601526111a68282610f2c565b915050606083015184820360608601526111c08282610f2c565b91505060808301516111d56080860182611149565b508091505092915050565b5f6020820190508181035f8301526111f88184611158565b905092915050565b5f81519050919050565b5f82825260208201905092915050565b5f819050602082019050919050565b5f60ff82169050919050565b61123e81611229565b82525050565b60c082015f8201516112585f850182610edb565b50602082015161126b6020850182611235565b50604082015161127e6040850182611235565b5060608201516112916060850182611235565b5060808201516112a46080850182611235565b5060a08201516112b760a0850182611235565b50505050565b5f6112c88383611244565b60c08301905092915050565b5f602082019050919050565b5f6112ea82611200565b6112f4818561120a565b93506112ff8361121a565b805f5b8381101561132f57815161131688826112bd565b9750611321836112d4565b925050600181019050611302565b5085935050505092915050565b5f6020820190508181035f83015261135481846112e0565b905092915050565b61136581611229565b811461136f575f80fd5b50565b5f813590506113808161135c565b92915050565b5f805f805f8060c087890312156113a05761139f610d1e565b5b5f87013567ffffffffffffffff8111156113bd576113bc610d22565b5b6113c989828a01610e35565b96505060206113da89828a01611372565b95505060406113eb89828a01611372565b94505060606113fc89828a01611372565b935050608061140d89828a01611372565b92505060a061141e89828a01611372565b9150509295509295509295565b5f81905092915050565b5f61143f82610eea565b611449818561142b565b9350611459818560208601610f04565b80840191505092915050565b5f6114708284611435565b915081905092915050565b5f82825260208201905092915050565b7f53747564656e7420646f6573206e6f74206578697374000000000000000000005f82015250565b5f6114bf60168361147b565b91506114ca8261148b565b602082019050919050565b5f6020820190508181035f8301526114ec816114b3565b9050919050565b7f4e487b71000000000000000000000000000000000000000000000000000000005f52602260045260245ffd5b5f600282049050600182168061153757607f821691505b60208210810361154a576115496114f3565b5b50919050565b7f53747564656e7420616c726561647920657869737473000000000000000000005f82015250565b5f61158460168361147b565b915061158f82611550565b602082019050919050565b5f6020820190508181035f8301526115b181611578565b9050919050565b5f819050815f5260205f209050919050565b5f6020601f8301049050919050565b5f82821b905092915050565b5f600883026116147fffffffffffffffffffffffffffffffffffffffffffffffffffffffffffffffff826115d9565b61161e86836115d9565b95508019841693508086168417925050509392505050565b5f819050919050565b5f61165961165461164f84610ed2565b611636565b610ed2565b9050919050565b5f819050919050565b6116728361163f565b61168661167e82611660565b8484546115e5565b825550505050565b5f90565b61169a61168e565b6116a5818484611669565b505050565b5b818110156116c8576116bd5f82611692565b6001810190506116ab565b5050565b601f82111561170d576116de816115b8565b6116e7846115ca565b810160208510156116f6578190505b61170a611702856115ca565b8301826116aa565b50505b505050565b5f82821c905092915050565b5f61172d5f1984600802611712565b1980831691505092915050565b5f611745838361171e565b9150826002028217905092915050565b61175e82610eea565b67ffffffffffffffff81111561177757611776610d3e565b5b6117818254611520565b61178c8282856116cc565b5f60209050601f8311600181146117bd575f84156117ab578287015190505b6117b5858261173a565b86555061181c565b601f1984166117cb866115b8565b5f5b828110156117f2578489015182556001820191506020850194506020810190506117cd565b8683101561180f578489015161180b601f89168261171e565b8355505b6001600288020188555050505b505050505050565b7f53747564656e742064657461696c7320616464656420666f72200000000000005f82015250565b5f611858601a8361142b565b915061186382611824565b601a82019050919050565b5f6118788261184c565b91506118848284611435565b915081905092915050565b5f61189982610eea565b6118a3818561147b565b93506118b3818560208601610f04565b6118bc81610d2e565b840191505092915050565b5f6080820190508181035f8301526118df818761188f565b905081810360208301526118f3818661188f565b90508181036040830152611907818561188f565b9050818103606083015261191b818461188f565b905095945050505050565b61192f81611229565b82525050565b5f60c0820190508181035f83015261194d818961188f565b905061195c6020830188611926565b6119696040830187611926565b6119766060830186611926565b6119836080830185611926565b61199060a0830184611926565b97965050505050505056fea2646970667358221220728613b3ac5fc73f83e1ef061a3dfaaed9478d5ca05c4aaa67b06527a46b4a5164736f6c63430008150033",
  "immutableReferences": {},
  "source": "// SPDX-License-Identifier: UNLICENSED\r\n\r\npragma solidity ^0.8.21;\r\n\r\n\r\ncontract StudentRecords {\r\n\r\n    struct StudentDetails {\r\n        string name;\r\n        string rollNumber; // unique\r\n        string admissionCode;\r\n        string fatherName;\r\n        bool exists;\r\n    }\r\n\r\n    struct Marks {\r\n        uint256 timestamp;\r\n        uint8 subject1;\r\n        uint8 subject2;\r\n        uint8 subject3;\r\n        uint8 subject4;\r\n        uint8 subject5;\r\n    }\r\n\r\n    struct ActivityLog {\r\n        uint256 timestamp;\r\n        string activityType; // e.g. \"Details Added\", \"Marks Added\"\r\n        string description;\r\n    }\r\n\r\n    // Mappings\r\n    mapping(string => StudentDetails) private students; // rollNumber => StudentDetails\r\n    mapping(string => Marks[]) private studentMarks; // rollNumber => Marks array\r\n    mapping(string => ActivityLog[]) private studentLogs; // rollNumber => ActivityLog array\r\n\r\n    // Events\r\n    event StudentAdded(string rollNumber, string name, string admissionCode, string fatherName);\r\n    event MarksAdded(string rollNumber, uint8 subject1, uint8 subject2, uint8 subject3, uint8 subject4, uint8 subject5);\r\n\r\n    // Step 1: Add student details\r\n    function addStudentDetails(\r\n        string memory _name,\r\n        string memory _rollNumber,\r\n        string memory _admissionCode,\r\n        string memory _fatherName\r\n    ) public {\r\n        require(!students[_rollNumber].exists, \"Student already exists\");\r\n\r\n        students[_rollNumber] = StudentDetails({\r\n            name: _name,\r\n            rollNumber: _rollNumber,\r\n            admissionCode: _admissionCode,\r\n            fatherName: _fatherName,\r\n            exists: true\r\n        });\r\n\r\n        // Add to logs\r\n        studentLogs[_rollNumber].push(ActivityLog({\r\n            timestamp: block.timestamp,\r\n            activityType: \"Details Added\",\r\n            description: string(abi.encodePacked(\"Student details added for \", _name))\r\n        }));\r\n\r\n        emit StudentAdded(_rollNumber, _name, _admissionCode, _fatherName);\r\n    }\r\n\r\n    // Step 2: Add student marks (can be called multiple times)\r\n    function addStudentMarks(\r\n        string memory _rollNumber,\r\n        uint8 _subject1,\r\n        uint8 _subject2,\r\n        uint8 _subject3,\r\n        uint8 _subject4,\r\n        uint8 _subject5\r\n    ) public {\r\n        require(students[_rollNumber].exists, \"Student does not exist\");\r\n\r\n        studentMarks[_rollNumber].push(Marks({\r\n            timestamp: block.timestamp,\r\n            subject1: _subject1,\r\n            subject2: _subject2,\r\n            subject3: _subject3,\r\n            subject4: _subject4,\r\n            subject5: _subject5\r\n        }));\r\n\r\n        // Add to logs\r\n        studentLogs[_rollNumber].push(ActivityLog({\r\n            timestamp: block.timestamp,\r\n            activityType: \"Marks Added\",\r\n            description: \"Marks record added.\"\r\n        }));\r\n\r\n        emit MarksAdded(_rollNumber, _subject1, _subject2, _subject3, _subject4, _subject5);\r\n    }\r\n\r\n    // Step 3: View student details\r\n    function getStudentDetails(string memory _rollNumber)\r\n        public\r\n        view\r\n        returns (StudentDetails memory)\r\n    {\r\n        require(students[_rollNumber].exists, \"Student does not exist\");\r\n        return students[_rollNumber];\r\n    }\r\n\r\n    // Get all marks records for a student\r\n    function getStudentMarks(string memory _rollNumber)\r\n        public\r\n        view\r\n        returns (Marks[] memory)\r\n    {\r\n        require(students[_rollNumber].exists, \"Student does not exist\");\r\n        return studentMarks[_rollNumber];\r\n    }\r\n\r\n    // Get all activity logs (timeline) for a student\r\n    function getStudentLogs(string memory _rollNumber)\r\n        public\r\n        view\r\n        returns (ActivityLog[] memory)\r\n    {\r\n        require(students[_rollNumber].exists, \"Student does not exist\");\r\n        return studentLogs[_rollNumber];\r\n    }\r\n}\r\n",
  "sourcePath": "C:\\Users\\OmSrinivasArepalli\\MetaCoin_Truffle\\contracts\\Sampletest.sol",
  "compiler": {
    "name": "solc",
    "version": "0.8.21+commit.d9974bed.Emscripten.clang"
  },
  "schemaVersion": "3.4.16",
  "updatedAt": "2025-09-01T09:47:01.920Z",
  "networkType": "ethereum",
  "devdoc": {
    "kind": "dev",
    "methods": {},
    "version": 1
  },
  "userdoc": {
    "kind": "user",
    "methods": {},
    "version": 1
  }
}